{
  "contractName": "FreelanceEscrow",
  "abi": [
    {
      "anonymous": false,
      "inputs": [
        {
          "indexed": true,
          "internalType": "uint256",
          "name": "projectId",
          "type": "uint256"
        },
        {
          "indexed": false,
          "internalType": "uint256",
          "name": "milestoneIndex",
          "type": "uint256"
        },
        {
          "indexed": false,
          "internalType": "bool",
          "name": "approvedByArbiter",
          "type": "bool"
        }
      ],
      "name": "DisputeResolved",
      "type": "event"
    },
    {
      "anonymous": false,
      "inputs": [
        {
          "indexed": true,
          "internalType": "uint256",
          "name": "projectId",
          "type": "uint256"
        },
        {
          "indexed": false,
          "internalType": "uint256",
          "name": "milestoneIndex",
          "type": "uint256"
        },
        {
          "indexed": false,
          "internalType": "uint256",
          "name": "amount",
          "type": "uint256"
        }
      ],
      "name": "MilestoneAdded",
      "type": "event"
    },
    {
      "anonymous": false,
      "inputs": [
        {
          "indexed": true,
          "internalType": "uint256",
          "name": "projectId",
          "type": "uint256"
        },
        {
          "indexed": false,
          "internalType": "uint256",
          "name": "milestoneIndex",
          "type": "uint256"
        },
        {
          "indexed": false,
          "internalType": "uint256",
          "name": "amount",
          "type": "uint256"
        }
      ],
      "name": "MilestoneApproved",
      "type": "event"
    },
    {
      "anonymous": false,
      "inputs": [
        {
          "indexed": true,
          "internalType": "uint256",
          "name": "projectId",
          "type": "uint256"
        },
        {
          "indexed": false,
          "internalType": "uint256",
          "name": "milestoneIndex",
          "type": "uint256"
        }
      ],
      "name": "MilestoneDisputed",
      "type": "event"
    },
    {
      "anonymous": false,
      "inputs": [
        {
          "indexed": true,
          "internalType": "uint256",
          "name": "projectId",
          "type": "uint256"
        },
        {
          "indexed": false,
          "internalType": "uint256",
          "name": "milestoneIndex",
          "type": "uint256"
        },
        {
          "indexed": false,
          "internalType": "string",
          "name": "deliverableHash",
          "type": "string"
        }
      ],
      "name": "MilestoneSubmitted",
      "type": "event"
    },
    {
      "anonymous": false,
      "inputs": [
        {
          "indexed": true,
          "internalType": "uint256",
          "name": "projectId",
          "type": "uint256"
        },
        {
          "indexed": true,
          "internalType": "address",
          "name": "freelancer",
          "type": "address"
        },
        {
          "indexed": false,
          "internalType": "uint256",
          "name": "amount",
          "type": "uint256"
        }
      ],
      "name": "PaymentReleased",
      "type": "event"
    },
    {
      "anonymous": false,
      "inputs": [
        {
          "indexed": true,
          "internalType": "uint256",
          "name": "projectId",
          "type": "uint256"
        }
      ],
      "name": "ProjectCancelled",
      "type": "event"
    },
    {
      "anonymous": false,
      "inputs": [
        {
          "indexed": true,
          "internalType": "uint256",
          "name": "projectId",
          "type": "uint256"
        }
      ],
      "name": "ProjectCompleted",
      "type": "event"
    },
    {
      "anonymous": false,
      "inputs": [
        {
          "indexed": true,
          "internalType": "uint256",
          "name": "projectId",
          "type": "uint256"
        },
        {
          "indexed": true,
          "internalType": "address",
          "name": "client",
          "type": "address"
        },
        {
          "indexed": true,
          "internalType": "address",
          "name": "freelancer",
          "type": "address"
        },
        {
          "indexed": false,
          "internalType": "uint256",
          "name": "totalAmount",
          "type": "uint256"
        }
      ],
      "name": "ProjectCreated",
      "type": "event"
    },
    {
      "anonymous": false,
      "inputs": [
        {
          "indexed": true,
          "internalType": "uint256",
          "name": "projectId",
          "type": "uint256"
        }
      ],
      "name": "ProjectStarted",
      "type": "event"
    },
    {
      "anonymous": false,
      "inputs": [
        {
          "indexed": true,
          "internalType": "uint256",
          "name": "projectId",
          "type": "uint256"
        },
        {
          "indexed": true,
          "internalType": "address",
          "name": "client",
          "type": "address"
        },
        {
          "indexed": false,
          "internalType": "uint256",
          "name": "amount",
          "type": "uint256"
        }
      ],
      "name": "RefundIssued",
      "type": "event"
    },
    {
      "inputs": [],
      "name": "APPROVAL_DEADLINE",
      "outputs": [
        {
          "internalType": "uint256",
          "name": "",
          "type": "uint256"
        }
      ],
      "stateMutability": "view",
      "type": "function",
      "constant": true
    },
    {
      "inputs": [],
      "name": "ARBITER_FEE_PERCENTAGE",
      "outputs": [
        {
          "internalType": "uint256",
          "name": "",
          "type": "uint256"
        }
      ],
      "stateMutability": "view",
      "type": "function",
      "constant": true
    },
    {
      "inputs": [],
      "name": "projectCounter",
      "outputs": [
        {
          "internalType": "uint256",
          "name": "",
          "type": "uint256"
        }
      ],
      "stateMutability": "view",
      "type": "function",
      "constant": true
    },
    {
      "inputs": [
        {
          "internalType": "uint256",
          "name": "",
          "type": "uint256"
        }
      ],
      "name": "projects",
      "outputs": [
        {
          "internalType": "address payable",
          "name": "client",
          "type": "address"
        },
        {
          "internalType": "address payable",
          "name": "freelancer",
          "type": "address"
        },
        {
          "internalType": "address payable",
          "name": "arbiter",
          "type": "address"
        },
        {
          "internalType": "string",
          "name": "projectDescription",
          "type": "string"
        },
        {
          "internalType": "uint256",
          "name": "totalAmount",
          "type": "uint256"
        },
        {
          "internalType": "uint256",
          "name": "arbiterFee",
          "type": "uint256"
        },
        {
          "internalType": "uint256",
          "name": "createdAt",
          "type": "uint256"
        },
        {
          "internalType": "uint256",
          "name": "deadline",
          "type": "uint256"
        },
        {
          "internalType": "enum FreelanceEscrow.ProjectStatus",
          "name": "status",
          "type": "uint8"
        },
        {
          "internalType": "uint256",
          "name": "paidAmount",
          "type": "uint256"
        },
        {
          "internalType": "bool",
          "name": "arbiterPaid",
          "type": "bool"
        }
      ],
      "stateMutability": "view",
      "type": "function",
      "constant": true
    },
    {
      "inputs": [
        {
          "internalType": "address payable",
          "name": "_freelancer",
          "type": "address"
        },
        {
          "internalType": "address payable",
          "name": "_arbiter",
          "type": "address"
        },
        {
          "internalType": "string",
          "name": "_projectDescription",
          "type": "string"
        },
        {
          "internalType": "uint256",
          "name": "_deadline",
          "type": "uint256"
        }
      ],
      "name": "createProject",
      "outputs": [
        {
          "internalType": "uint256",
          "name": "",
          "type": "uint256"
        }
      ],
      "stateMutability": "nonpayable",
      "type": "function"
    },
    {
      "inputs": [
        {
          "internalType": "uint256",
          "name": "_projectId",
          "type": "uint256"
        },
        {
          "internalType": "string",
          "name": "_description",
          "type": "string"
        },
        {
          "internalType": "uint256",
          "name": "_amount",
          "type": "uint256"
        }
      ],
      "name": "addMilestone",
      "outputs": [],
      "stateMutability": "nonpayable",
      "type": "function"
    },
    {
      "inputs": [
        {
          "internalType": "uint256",
          "name": "_projectId",
          "type": "uint256"
        }
      ],
      "name": "startProject",
      "outputs": [],
      "stateMutability": "payable",
      "type": "function",
      "payable": true
    },
    {
      "inputs": [
        {
          "internalType": "uint256",
          "name": "_projectId",
          "type": "uint256"
        },
        {
          "internalType": "uint256",
          "name": "_milestoneIndex",
          "type": "uint256"
        },
        {
          "internalType": "string",
          "name": "_deliverableHash",
          "type": "string"
        }
      ],
      "name": "submitMilestone",
      "outputs": [],
      "stateMutability": "nonpayable",
      "type": "function"
    },
    {
      "inputs": [
        {
          "internalType": "uint256",
          "name": "_projectId",
          "type": "uint256"
        },
        {
          "internalType": "uint256",
          "name": "_milestoneIndex",
          "type": "uint256"
        }
      ],
      "name": "approveMilestone",
      "outputs": [],
      "stateMutability": "nonpayable",
      "type": "function"
    },
    {
      "inputs": [
        {
          "internalType": "uint256",
          "name": "_projectId",
          "type": "uint256"
        },
        {
          "internalType": "uint256",
          "name": "_milestoneIndex",
          "type": "uint256"
        }
      ],
      "name": "autoApproveMilestone",
      "outputs": [],
      "stateMutability": "nonpayable",
      "type": "function"
    },
    {
      "inputs": [
        {
          "internalType": "uint256",
          "name": "_projectId",
          "type": "uint256"
        },
        {
          "internalType": "uint256",
          "name": "_milestoneIndex",
          "type": "uint256"
        }
      ],
      "name": "disputeMilestone",
      "outputs": [],
      "stateMutability": "nonpayable",
      "type": "function"
    },
    {
      "inputs": [
        {
          "internalType": "uint256",
          "name": "_projectId",
          "type": "uint256"
        },
        {
          "internalType": "uint256",
          "name": "_milestoneIndex",
          "type": "uint256"
        },
        {
          "internalType": "bool",
          "name": "_approveFreelancer",
          "type": "bool"
        }
      ],
      "name": "resolveDispute",
      "outputs": [],
      "stateMutability": "nonpayable",
      "type": "function"
    },
    {
      "inputs": [
        {
          "internalType": "uint256",
          "name": "_projectId",
          "type": "uint256"
        }
      ],
      "name": "cancelProject",
      "outputs": [],
      "stateMutability": "nonpayable",
      "type": "function"
    },
    {
      "inputs": [
        {
          "internalType": "uint256",
          "name": "_projectId",
          "type": "uint256"
        }
      ],
      "name": "requestRefund",
      "outputs": [],
      "stateMutability": "nonpayable",
      "type": "function"
    },
    {
      "inputs": [
        {
          "internalType": "uint256",
          "name": "_projectId",
          "type": "uint256"
        }
      ],
      "name": "getProject",
      "outputs": [
        {
          "internalType": "address",
          "name": "client",
          "type": "address"
        },
        {
          "internalType": "address",
          "name": "freelancer",
          "type": "address"
        },
        {
          "internalType": "address",
          "name": "arbiter",
          "type": "address"
        },
        {
          "internalType": "string",
          "name": "projectDescription",
          "type": "string"
        },
        {
          "internalType": "uint256",
          "name": "totalAmount",
          "type": "uint256"
        },
        {
          "internalType": "uint256",
          "name": "paidAmount",
          "type": "uint256"
        },
        {
          "internalType": "enum FreelanceEscrow.ProjectStatus",
          "name": "status",
          "type": "uint8"
        },
        {
          "internalType": "uint256",
          "name": "milestoneCount",
          "type": "uint256"
        }
      ],
      "stateMutability": "view",
      "type": "function",
      "constant": true
    },
    {
      "inputs": [
        {
          "internalType": "uint256",
          "name": "_projectId",
          "type": "uint256"
        },
        {
          "internalType": "uint256",
          "name": "_milestoneIndex",
          "type": "uint256"
        }
      ],
      "name": "getMilestone",
      "outputs": [
        {
          "internalType": "string",
          "name": "description",
          "type": "string"
        },
        {
          "internalType": "uint256",
          "name": "amount",
          "type": "uint256"
        },
        {
          "internalType": "enum FreelanceEscrow.MilestoneStatus",
          "name": "status",
          "type": "uint8"
        },
        {
          "internalType": "uint256",
          "name": "submittedTime",
          "type": "uint256"
        },
        {
          "internalType": "string",
          "name": "deliverableHash",
          "type": "string"
        }
      ],
      "stateMutability": "view",
      "type": "function",
      "constant": true
    },
    {
      "inputs": [],
      "name": "getContractBalance",
      "outputs": [
        {
          "internalType": "uint256",
          "name": "",
          "type": "uint256"
        }
      ],
      "stateMutability": "view",
      "type": "function",
      "constant": true
    }
  ],
  "bytecode": "0x608060405234801561001057600080fd5b5061257e806100206000396000f3fe6080604052600436106100fe5760003560e01c80638ed9895c11610095578063d47ffcd711610064578063d47ffcd7146102ac578063f0f3f2c8146102cc578063f62bf2de14610300578063f8a518ed14610313578063f955483f1461032957600080fd5b80638ed9895c1461021b57806398df912e1461024c578063a13133171461026c578063a4b2409e1461028c57600080fd5b806324941147116100d157806324941147146101a857806336c47f5f146101c857806360525b98146101e85780636f9fb98a1461020857600080fd5b80630390e07a14610103578063107046bd146101255780631339878e1461016557806320913da514610188575b600080fd5b34801561010f57600080fd5b5061012361011e366004611ee5565b610340565b005b34801561013157600080fd5b50610145610140366004611f35565b610565565b60405161015c9b9a99989796959493929190611fbe565b60405180910390f35b34801561017157600080fd5b5061017a600281565b60405190815260200161015c565b34801561019457600080fd5b506101236101a336600461203c565b610659565b3480156101b457600080fd5b506101236101c3366004611f35565b6108a0565b3480156101d457600080fd5b506101236101e336600461205e565b61098b565b3480156101f457600080fd5b5061017a6102033660046120b8565b610cb4565b34801561021457600080fd5b504761017a565b34801561022757600080fd5b5061023b61023636600461203c565b610f98565b60405161015c95949392919061211e565b34801561025857600080fd5b50610123610267366004612171565b611178565b34801561027857600080fd5b5061012361028736600461203c565b6113a4565b34801561029857600080fd5b506101236102a7366004611f35565b611614565b3480156102b857600080fd5b506101236102c736600461203c565b61182a565b3480156102d857600080fd5b506102ec6102e7366004611f35565b6119bd565b60405161015c9897969594939291906121c1565b61012361030e366004611f35565b611ae5565b34801561031f57600080fd5b5061017a60015481565b34801561033557600080fd5b5061017a62093a8081565b82600154811061036b5760405162461bcd60e51b815260040161036290612225565b60405180910390fd5b60008481526020819052604090206001015484906001600160a01b031633146103e55760405162461bcd60e51b815260206004820152602660248201527f4f6e6c7920667265656c616e6365722063616e2063616c6c20746869732066756044820152653731ba34b7b760d11b6064820152608401610362565b8460018060008381526020819052604090206008015460ff16600581111561040f5761040f611f94565b1461042c5760405162461bcd60e51b815260040161036290612255565b60008781526020819052604090206009810154871061045d5760405162461bcd60e51b815260040161036290612285565b6000816009018881548110610474576104746122bc565b6000918252602082206005909102019150600282015460ff16600481111561049e5761049e611f94565b146104fc5760405162461bcd60e51b815260206004820152602860248201527f4d696c6573746f6e6520616c7265616479207375626d6974746564206f7220706044820152671c9bd8d95cdcd95960c21b6064820152608401610362565b60028101805460ff191660011790554260038201556004810161051f888261235a565b50887f556e3b296d5e8c8bab27684b52ae96905507befd2d188ce6f4453a6717dd9c00898960405161055292919061241a565b60405180910390a2505050505050505050565b60006020819052908152604090208054600182015460028301546003840180546001600160a01b03948516959385169490921692916105a3906122d2565b80601f01602080910402602001604051908101604052809291908181526020018280546105cf906122d2565b801561061c5780601f106105f15761010080835404028352916020019161061c565b820191906000526020600020905b8154815290600101906020018083116105ff57829003601f168201915b5050505060048301546005840154600685015460078601546008870154600a880154600b90980154969794969395509193909260ff92831692168b565b81600154811061067b5760405162461bcd60e51b815260040161036290612225565b60008381526020819052604090205483906001600160a01b031633146106b35760405162461bcd60e51b81526004016103629061243b565b8360018060008381526020819052604090206008015460ff1660058111156106dd576106dd611f94565b146106fa5760405162461bcd60e51b815260040161036290612255565b60008681526020819052604090206009810154861061072b5760405162461bcd60e51b815260040161036290612285565b6000816009018781548110610742576107426122bc565b6000918252602090912060059091020190506001600282015460ff16600481111561076f5761076f611f94565b1461078c5760405162461bcd60e51b81526004016103629061247d565b6002818101805460ff191690911790556001810154600a830180546000906107b59084906124ca565b9091555050600180830154908201546040516001600160a01b039092169181156108fc0291906000818181858888f193505050501580156107fa573d6000803e3d6000fd5b50877f6e3fd8bb18eed6833ae758e07c361bf145ce27c88bdf6d5029ddabf188d72ca688836001015460405161083a929190918252602082015260400190565b60405180910390a2600182810154908201546040519081526001600160a01b039091169089907f21d71db5be59bb9fa133895586b7404307dd33fb93b16db09dc6f1d9d7d231b09060200160405180910390a361089688611cd5565b5050505050505050565b8060015481106108c25760405162461bcd60e51b815260040161036290612225565b60008281526020819052604090205482906001600160a01b031633146108fa5760405162461bcd60e51b81526004016103629061243b565b8260008060008381526020819052604090206008015460ff16600581111561092457610924611f94565b146109415760405162461bcd60e51b815260040161036290612255565b600085815260208190526040808220600801805460ff191660041790555186917fe3805ed669490875ae87c5c8b1ad6ecca0e5e67305a833926d0d4317c4822fc091a25050505050565b8260015481106109ad5760405162461bcd60e51b815260040161036290612225565b60008481526020819052604090206002015484906001600160a01b03163314610a245760405162461bcd60e51b815260206004820152602360248201527f4f6e6c7920617262697465722063616e2063616c6c20746869732066756e637460448201526234b7b760e91b6064820152608401610362565b8460038060008381526020819052604090206008015460ff166005811115610a4e57610a4e611f94565b14610a6b5760405162461bcd60e51b815260040161036290612255565b600087815260208190526040902060098101548710610a9c5760405162461bcd60e51b815260040161036290612285565b6000816009018881548110610ab357610ab36122bc565b6000918252602090912060059091020190506003600282015460ff166004811115610ae057610ae0611f94565b14610b265760405162461bcd60e51b8152602060048201526016602482015275135a5b195cdd1bdb99481b9bdd08191a5cdc1d5d195960521b6044820152606401610362565b8615610beb576002818101805460ff191690911790556001810154600a83018054600090610b559084906124ca565b9091555050600180830154908201546040516001600160a01b039092169181156108fc0291906000818181858888f19350505050158015610b9a573d6000803e3d6000fd5b50600182810154908201546040519081526001600160a01b03909116908a907f21d71db5be59bb9fa133895586b7404307dd33fb93b16db09dc6f1d9d7d231b09060200160405180910390a3610bf8565b60028101805460ff191690555b600b82015460ff16610c5557600282015460058301546040516001600160a01b039092169181156108fc0291906000818181858888f19350505050158015610c44573d6000803e3d6000fd5b50600b8201805460ff191660011790555b60088201805460ff191660011790556040805189815288151560208201528a917fc84a77110774854ab237145b108e924962dbaa5191275eb044a6cb09621c4a94910160405180910390a2610ca989611cd5565b505050505050505050565b60006001600160a01b038516610d0c5760405162461bcd60e51b815260206004820152601a60248201527f496e76616c696420667265656c616e63657220616464726573730000000000006044820152606401610362565b6001600160a01b038416610d625760405162461bcd60e51b815260206004820152601760248201527f496e76616c6964206172626974657220616464726573730000000000000000006044820152606401610362565b336001600160a01b03861603610dba5760405162461bcd60e51b815260206004820152601b60248201527f436c69656e742063616e6e6f7420626520667265656c616e63657200000000006044820152606401610362565b336001600160a01b03851603610e125760405162461bcd60e51b815260206004820152601860248201527f436c69656e742063616e6e6f74206265206172626974657200000000000000006044820152606401610362565b846001600160a01b0316846001600160a01b031603610e735760405162461bcd60e51b815260206004820152601c60248201527f417262697465722063616e6e6f7420626520667265656c616e636572000000006044820152606401610362565b428211610ec25760405162461bcd60e51b815260206004820152601e60248201527f446561646c696e65206d75737420626520696e207468652066757475726500006044820152606401610362565b6001805460009182610ed3836124e3565b9091555060008181526020819052604090208054336001600160a01b031991821617825560018201805482166001600160a01b038b81169190911790915560028301805490921690891617905590915060038101610f31868261235a565b504260068201556007810184905560088101805460ff19169055604051600081526001600160a01b03881690339084907ff03bc2e49a83d942284cb30e1c2935d4b542e1e1e6456d28b5365ddb110a52a29060200160405180910390a45095945050505050565b606060008060006060866001548110610fc35760405162461bcd60e51b815260040161036290612225565b6000888152602081905260409020600901548710610ff35760405162461bcd60e51b815260040161036290612285565b6000888152602081905260408120600901805489908110611016576110166122bc565b906000526020600020906005020190508060000181600101548260020160009054906101000a900460ff16836003015484600401848054611056906122d2565b80601f0160208091040260200160405190810160405280929190818152602001828054611082906122d2565b80156110cf5780601f106110a4576101008083540402835291602001916110cf565b820191906000526020600020905b8154815290600101906020018083116110b257829003601f168201915b505050505094508080546110e2906122d2565b80601f016020809104026020016040519081016040528092919081815260200182805461110e906122d2565b801561115b5780601f106111305761010080835404028352916020019161115b565b820191906000526020600020905b81548152906001019060200180831161113e57829003601f168201915b505050505090509650965096509650965050509295509295909350565b82600154811061119a5760405162461bcd60e51b815260040161036290612225565b60008481526020819052604090205484906001600160a01b031633146111d25760405162461bcd60e51b81526004016103629061243b565b8460008060008381526020819052604090206008015460ff1660058111156111fc576111fc611f94565b146112195760405162461bcd60e51b815260040161036290612255565b600085116112795760405162461bcd60e51b815260206004820152602760248201527f4d696c6573746f6e6520616d6f756e74206d75737420626520677265617465726044820152660207468616e20360cc1b6064820152608401610362565b600087815260208181526040808320815160a0810183528a81528084018a905280830185905260608101859052825180850190935284835260808101929092526009810180546001810182559085529290932081519192839260059091029091019081906112e7908261235a565b506020820151816001015560408201518160020160006101000a81548160ff0219169083600481111561131c5761131c611f94565b0217905550606082015160038201556080820151600482019061133f908261235a565b5050508682600401600082825461135691906124ca565b9091555050600982015489907f99c090ea4e24c09baf74da49bf4100be7de555b972b1e6e4f495989738093d7990611390906001906124fc565b60408051918252602082018b905201610552565b8160015481106113c65760405162461bcd60e51b815260040161036290612225565b8260018060008381526020819052604090206008015460ff1660058111156113f0576113f0611f94565b1461140d5760405162461bcd60e51b815260040161036290612255565b60008581526020819052604090206009810154851061143e5760405162461bcd60e51b815260040161036290612285565b6000816009018681548110611455576114556122bc565b6000918252602090912060059091020190506001600282015460ff16600481111561148257611482611f94565b1461149f5760405162461bcd60e51b81526004016103629061247d565b62093a8081600301546114b291906124ca565b4210156115015760405162461bcd60e51b815260206004820152601d60248201527f417070726f76616c20646561646c696e65206e6f7420726561636865640000006044820152606401610362565b6002818101805460ff191690911790556001810154600a8301805460009061152a9084906124ca565b9091555050600180830154908201546040516001600160a01b039092169181156108fc0291906000818181858888f1935050505015801561156f573d6000803e3d6000fd5b50867f6e3fd8bb18eed6833ae758e07c361bf145ce27c88bdf6d5029ddabf188d72ca68783600101546040516115af929190918252602082015260400190565b60405180910390a2600182810154908201546040519081526001600160a01b039091169088907f21d71db5be59bb9fa133895586b7404307dd33fb93b16db09dc6f1d9d7d231b09060200160405180910390a361160b87611cd5565b50505050505050565b8060015481106116365760405162461bcd60e51b815260040161036290612225565b8160018060008381526020819052604090206008015460ff16600581111561166057611660611f94565b1461167d5760405162461bcd60e51b815260040161036290612255565b6000848152602081905260409020546001600160a01b03163314806116bb57506000848152602081905260409020600101546001600160a01b031633145b61171c5760405162461bcd60e51b815260206004820152602c60248201527f4f6e6c7920636c69656e74206f7220667265656c616e6365722063616e20726560448201526b1c5d595cdd081c99599d5b9960a21b6064820152608401610362565b6000848152602081905260408120600a810154600482015491929161174191906124fc565b905080156117e85760088201805460ff191660059081179091558254908301546001600160a01b03909116906108fc9061177b90846124ca565b6040518115909202916000818181858888f193505050501580156117a3573d6000803e3d6000fd5b5081546040518281526001600160a01b039091169087907f7a482fdeb6bc9a1376f597068a214a7a39472bb2eff1b8cad21ba04f49ddca1b9060200160405180910390a35b60088201805460ff1916600417905560405186907fe3805ed669490875ae87c5c8b1ad6ecca0e5e67305a833926d0d4317c4822fc090600090a2505050505050565b81600154811061184c5760405162461bcd60e51b815260040161036290612225565b60008381526020819052604090205483906001600160a01b031633146118845760405162461bcd60e51b81526004016103629061243b565b8360018060008381526020819052604090206008015460ff1660058111156118ae576118ae611f94565b146118cb5760405162461bcd60e51b815260040161036290612255565b6000868152602081905260409020600981015486106118fc5760405162461bcd60e51b815260040161036290612285565b6000816009018781548110611913576119136122bc565b6000918252602090912060059091020190506001600282015460ff16600481111561194057611940611f94565b1461195d5760405162461bcd60e51b81526004016103629061247d565b600281018054600360ff199182168117909255600884018054909116909117905560405187815288907fce3ad71f0982ff0d056c2b9383d8b2f2c20e9cbc2df1d92df1a39ff70d1ff26f9060200160405180910390a25050505050505050565b600080600060606000806000808860015481106119ec5760405162461bcd60e51b815260040161036290612225565b60008a81526020819052604090208054600182015460028301546004840154600a850154600886015460098701546003880180546001600160a01b039889169897881697909616959094939260ff1691908590611a48906122d2565b80601f0160208091040260200160405190810160405280929190818152602001828054611a74906122d2565b8015611ac15780601f10611a9657610100808354040283529160200191611ac1565b820191906000526020600020905b815481529060010190602001808311611aa457829003601f168201915b50505050509450995099509950995099509950995099505050919395975091939597565b806001548110611b075760405162461bcd60e51b815260040161036290612225565b60008281526020819052604090205482906001600160a01b03163314611b3f5760405162461bcd60e51b81526004016103629061243b565b8260008060008381526020819052604090206008015460ff166005811115611b6957611b69611f94565b14611b865760405162461bcd60e51b815260040161036290612255565b60008581526020819052604090206009810154611bf65760405162461bcd60e51b815260206004820152602860248201527f50726f6a656374206d7573742068617665206174206c65617374206f6e65206d604482015267696c6573746f6e6560c01b6064820152608401610362565b606460028260040154611c09919061250f565b611c139190612526565b600582018190556004820154600091611c2b916124ca565b9050803414611c925760405162461bcd60e51b815260206004820152602d60248201527f4d7573742073656e6420657861637420746f74616c20616d6f756e7420706c7560448201526c7320617262697465722066656560981b6064820152608401610362565b60088201805460ff1916600117905560405187907fc6103cc0479d202218c64bbfa4df30c34a1f97e64c85a5a441103a0766241e6690600090a250505050505050565b6000818152602081905260408120906001905b6009830154811015611d9e576002836009018281548110611d0b57611d0b6122bc565b600091825260209091206002600590920201015460ff166004811115611d3357611d33611f94565b14158015611d7e57506004836009018281548110611d5357611d536122bc565b600091825260209091206002600590920201015460ff166004811115611d7b57611d7b611f94565b14155b15611d8c5760009150611d9e565b80611d96816124e3565b915050611ce8565b508015611e3d5760088201805460ff19166002179055600b82015460ff16611e1157600282015460058301546040516001600160a01b039092169181156108fc0291906000818181858888f19350505050158015611e00573d6000803e3d6000fd5b50600b8201805460ff191660011790555b60405183907f60d8df137e489b6216738e436244ca4700bd6d0c8371d3c8d9c80b54538111b990600090a25b505050565b634e487b7160e01b600052604160045260246000fd5b600082601f830112611e6957600080fd5b813567ffffffffffffffff80821115611e8457611e84611e42565b604051601f8301601f19908116603f01168101908282118183101715611eac57611eac611e42565b81604052838152866020858801011115611ec557600080fd5b836020870160208301376000602085830101528094505050505092915050565b600080600060608486031215611efa57600080fd5b8335925060208401359150604084013567ffffffffffffffff811115611f1f57600080fd5b611f2b86828701611e58565b9150509250925092565b600060208284031215611f4757600080fd5b5035919050565b6000815180845260005b81811015611f7457602081850181015186830182015201611f58565b506000602082860101526020601f19601f83011685010191505092915050565b634e487b7160e01b600052602160045260246000fd5b60068110611fba57611fba611f94565b9052565b6001600160a01b038c811682528b811660208301528a16604082015261016060608201819052600090611ff38382018c611f4e565b9150508860808301528760a08301528660c08301528560e083015261201c610100830186611faa565b836101208301528215156101408301529c9b505050505050505050505050565b6000806040838503121561204f57600080fd5b50508035926020909101359150565b60008060006060848603121561207357600080fd5b83359250602084013591506040840135801515811461209157600080fd5b809150509250925092565b80356001600160a01b03811681146120b357600080fd5b919050565b600080600080608085870312156120ce57600080fd5b6120d78561209c565b93506120e56020860161209c565b9250604085013567ffffffffffffffff81111561210157600080fd5b61210d87828801611e58565b949793965093946060013593505050565b60a08152600061213160a0830188611f4e565b8660208401526005861061214757612147611f94565b85604084015284606084015282810360808401526121658185611f4e565b98975050505050505050565b60008060006060848603121561218657600080fd5b83359250602084013567ffffffffffffffff8111156121a457600080fd5b6121b086828701611e58565b925050604084013590509250925092565b6001600160a01b038981168252888116602083015287166040820152610100606082018190526000906121f683820189611f4e565b9150508560808301528460a083015261221260c0830185611faa565b8260e08301529998505050505050505050565b602080825260169082015275141c9bda9958dd08191bd95cc81b9bdd08195e1a5cdd60521b604082015260600190565b602080825260169082015275496e76616c69642070726f6a6563742073746174757360501b604082015260600190565b60208082526017908201527f496e76616c6964206d696c6573746f6e6520696e646578000000000000000000604082015260600190565b634e487b7160e01b600052603260045260246000fd5b600181811c908216806122e657607f821691505b60208210810361230657634e487b7160e01b600052602260045260246000fd5b50919050565b601f821115611e3d57600081815260208120601f850160051c810160208610156123335750805b601f850160051c820191505b818110156123525782815560010161233f565b505050505050565b815167ffffffffffffffff81111561237457612374611e42565b6123888161238284546122d2565b8461230c565b602080601f8311600181146123bd57600084156123a55750858301515b600019600386901b1c1916600185901b178555612352565b600085815260208120601f198616915b828110156123ec578886015182559484019460019091019084016123cd565b508582101561240a5787850151600019600388901b60f8161c191681555b5050505050600190811b01905550565b8281526040602082015260006124336040830184611f4e565b949350505050565b60208082526022908201527f4f6e6c7920636c69656e742063616e2063616c6c20746869732066756e63746960408201526137b760f11b606082015260800190565b60208082526017908201527f4d696c6573746f6e65206e6f74207375626d6974746564000000000000000000604082015260600190565b634e487b7160e01b600052601160045260246000fd5b808201808211156124dd576124dd6124b4565b92915050565b6000600182016124f5576124f56124b4565b5060010190565b818103818111156124dd576124dd6124b4565b80820281158282048414176124dd576124dd6124b4565b60008261254357634e487b7160e01b600052601260045260246000fd5b50049056fea2646970667358221220af463748583d624401fbd7ccf063481544fe5ce033458afc989e8027f3e2a67a64736f6c63430008130033",
  "immutableReferences": {},
  "source": "// SPDX-License-Identifier: MIT\r\npragma solidity ^0.8.0;\r\n\r\n/**\r\n * @title FreelanceEscrow\r\n * @dev Smart contract for managing freelance work payments with milestone-based releases\r\n * @notice This contract handles escrow payments between clients and freelancers with arbiter dispute resolution\r\n */\r\ncontract FreelanceEscrow {\r\n    \r\n    // Enums\r\n    enum ProjectStatus { Created, InProgress, Completed, Disputed, Cancelled, Refunded }\r\n    enum MilestoneStatus { Pending, Submitted, Approved, Disputed, Paid }\r\n    \r\n    // Structs\r\n    struct Milestone {\r\n        string description;\r\n        uint256 amount;\r\n        MilestoneStatus status;\r\n        uint256 submittedTime;\r\n        string deliverableHash; // IPFS hash or proof of work\r\n    }\r\n    \r\n    struct Project {\r\n        address payable client;\r\n        address payable freelancer;\r\n        address payable arbiter;\r\n        string projectDescription;\r\n        uint256 totalAmount;\r\n        uint256 arbiterFee;\r\n        uint256 createdAt;\r\n        uint256 deadline;\r\n        ProjectStatus status;\r\n        Milestone[] milestones;\r\n        uint256 paidAmount;\r\n        bool arbiterPaid;\r\n    }\r\n    \r\n    // State variables\r\n    mapping(uint256 => Project) public projects;\r\n    uint256 public projectCounter;\r\n    uint256 public constant ARBITER_FEE_PERCENTAGE = 2; // 2% arbiter fee\r\n    uint256 public constant APPROVAL_DEADLINE = 7 days; // Auto-approve after 7 days\r\n    \r\n    // Events\r\n    event ProjectCreated(\r\n        uint256 indexed projectId,\r\n        address indexed client,\r\n        address indexed freelancer,\r\n        uint256 totalAmount\r\n    );\r\n    \r\n    event MilestoneAdded(\r\n        uint256 indexed projectId,\r\n        uint256 milestoneIndex,\r\n        uint256 amount\r\n    );\r\n    \r\n    event ProjectStarted(uint256 indexed projectId);\r\n    \r\n    event MilestoneSubmitted(\r\n        uint256 indexed projectId,\r\n        uint256 milestoneIndex,\r\n        string deliverableHash\r\n    );\r\n    \r\n    event MilestoneApproved(\r\n        uint256 indexed projectId,\r\n        uint256 milestoneIndex,\r\n        uint256 amount\r\n    );\r\n    \r\n    event MilestoneDisputed(\r\n        uint256 indexed projectId,\r\n        uint256 milestoneIndex\r\n    );\r\n    \r\n    event DisputeResolved(\r\n        uint256 indexed projectId,\r\n        uint256 milestoneIndex,\r\n        bool approvedByArbiter\r\n    );\r\n    \r\n    event ProjectCompleted(uint256 indexed projectId);\r\n    \r\n    event ProjectCancelled(uint256 indexed projectId);\r\n    \r\n    event RefundIssued(\r\n        uint256 indexed projectId,\r\n        address indexed client,\r\n        uint256 amount\r\n    );\r\n    \r\n    event PaymentReleased(\r\n        uint256 indexed projectId,\r\n        address indexed freelancer,\r\n        uint256 amount\r\n    );\r\n    \r\n    // Modifiers\r\n    modifier onlyClient(uint256 _projectId) {\r\n        require(\r\n            msg.sender == projects[_projectId].client,\r\n            \"Only client can call this function\"\r\n        );\r\n        _;\r\n    }\r\n    \r\n    modifier onlyFreelancer(uint256 _projectId) {\r\n        require(\r\n            msg.sender == projects[_projectId].freelancer,\r\n            \"Only freelancer can call this function\"\r\n        );\r\n        _;\r\n    }\r\n    \r\n    modifier onlyArbiter(uint256 _projectId) {\r\n        require(\r\n            msg.sender == projects[_projectId].arbiter,\r\n            \"Only arbiter can call this function\"\r\n        );\r\n        _;\r\n    }\r\n    \r\n    modifier projectExists(uint256 _projectId) {\r\n        require(_projectId < projectCounter, \"Project does not exist\");\r\n        _;\r\n    }\r\n    \r\n    modifier inStatus(uint256 _projectId, ProjectStatus _status) {\r\n        require(\r\n            projects[_projectId].status == _status,\r\n            \"Invalid project status\"\r\n        );\r\n        _;\r\n    }\r\n    \r\n    /**\r\n     * @dev Create a new freelance project\r\n     * @param _freelancer Address of the freelancer\r\n     * @param _arbiter Address of the arbiter for dispute resolution\r\n     * @param _projectDescription Description of the project\r\n     * @param _deadline Project deadline timestamp\r\n     */\r\n    function createProject(\r\n        address payable _freelancer,\r\n        address payable _arbiter,\r\n        string memory _projectDescription,\r\n        uint256 _deadline\r\n    ) external returns (uint256) {\r\n        require(_freelancer != address(0), \"Invalid freelancer address\");\r\n        require(_arbiter != address(0), \"Invalid arbiter address\");\r\n        require(_freelancer != msg.sender, \"Client cannot be freelancer\");\r\n        require(_arbiter != msg.sender, \"Client cannot be arbiter\");\r\n        require(_arbiter != _freelancer, \"Arbiter cannot be freelancer\");\r\n        require(_deadline > block.timestamp, \"Deadline must be in the future\");\r\n        \r\n        uint256 projectId = projectCounter++;\r\n        Project storage project = projects[projectId];\r\n        \r\n        project.client = payable(msg.sender);\r\n        project.freelancer = _freelancer;\r\n        project.arbiter = _arbiter;\r\n        project.projectDescription = _projectDescription;\r\n        project.createdAt = block.timestamp;\r\n        project.deadline = _deadline;\r\n        project.status = ProjectStatus.Created;\r\n        \r\n        emit ProjectCreated(projectId, msg.sender, _freelancer, 0);\r\n        \r\n        return projectId;\r\n    }\r\n    \r\n    /**\r\n     * @dev Add a milestone to the project\r\n     * @param _projectId ID of the project\r\n     * @param _description Description of the milestone\r\n     * @param _amount Amount to be paid for this milestone\r\n     */\r\n    function addMilestone(\r\n        uint256 _projectId,\r\n        string memory _description,\r\n        uint256 _amount\r\n    ) external projectExists(_projectId) onlyClient(_projectId) inStatus(_projectId, ProjectStatus.Created) {\r\n        require(_amount > 0, \"Milestone amount must be greater than 0\");\r\n        \r\n        Project storage project = projects[_projectId];\r\n        \r\n        Milestone memory newMilestone = Milestone({\r\n            description: _description,\r\n            amount: _amount,\r\n            status: MilestoneStatus.Pending,\r\n            submittedTime: 0,\r\n            deliverableHash: \"\"\r\n        });\r\n        \r\n        project.milestones.push(newMilestone);\r\n        project.totalAmount += _amount;\r\n        \r\n        emit MilestoneAdded(_projectId, project.milestones.length - 1, _amount);\r\n    }\r\n    \r\n    /**\r\n     * @dev Start the project and fund the escrow\r\n     * @param _projectId ID of the project\r\n     */\r\n    function startProject(uint256 _projectId)\r\n        external\r\n        payable\r\n        projectExists(_projectId)\r\n        onlyClient(_projectId)\r\n        inStatus(_projectId, ProjectStatus.Created)\r\n    {\r\n        Project storage project = projects[_projectId];\r\n        require(project.milestones.length > 0, \"Project must have at least one milestone\");\r\n        \r\n        // Calculate arbiter fee\r\n        project.arbiterFee = (project.totalAmount * ARBITER_FEE_PERCENTAGE) / 100;\r\n        uint256 totalRequired = project.totalAmount + project.arbiterFee;\r\n        \r\n        require(msg.value == totalRequired, \"Must send exact total amount plus arbiter fee\");\r\n        \r\n        project.status = ProjectStatus.InProgress;\r\n        \r\n        emit ProjectStarted(_projectId);\r\n    }\r\n    \r\n    /**\r\n     * @dev Freelancer submits a completed milestone\r\n     * @param _projectId ID of the project\r\n     * @param _milestoneIndex Index of the milestone\r\n     * @param _deliverableHash IPFS hash or proof of work\r\n     */\r\n    function submitMilestone(\r\n        uint256 _projectId,\r\n        uint256 _milestoneIndex,\r\n        string memory _deliverableHash\r\n    ) external projectExists(_projectId) onlyFreelancer(_projectId) inStatus(_projectId, ProjectStatus.InProgress) {\r\n        Project storage project = projects[_projectId];\r\n        require(_milestoneIndex < project.milestones.length, \"Invalid milestone index\");\r\n        \r\n        Milestone storage milestone = project.milestones[_milestoneIndex];\r\n        require(\r\n            milestone.status == MilestoneStatus.Pending,\r\n            \"Milestone already submitted or processed\"\r\n        );\r\n        \r\n        milestone.status = MilestoneStatus.Submitted;\r\n        milestone.submittedTime = block.timestamp;\r\n        milestone.deliverableHash = _deliverableHash;\r\n        \r\n        emit MilestoneSubmitted(_projectId, _milestoneIndex, _deliverableHash);\r\n    }\r\n    \r\n    /**\r\n     * @dev Client approves a submitted milestone\r\n     * @param _projectId ID of the project\r\n     * @param _milestoneIndex Index of the milestone\r\n     */\r\n    function approveMilestone(uint256 _projectId, uint256 _milestoneIndex)\r\n        external\r\n        projectExists(_projectId)\r\n        onlyClient(_projectId)\r\n        inStatus(_projectId, ProjectStatus.InProgress)\r\n    {\r\n        Project storage project = projects[_projectId];\r\n        require(_milestoneIndex < project.milestones.length, \"Invalid milestone index\");\r\n        \r\n        Milestone storage milestone = project.milestones[_milestoneIndex];\r\n        require(\r\n            milestone.status == MilestoneStatus.Submitted,\r\n            \"Milestone not submitted\"\r\n        );\r\n        \r\n        milestone.status = MilestoneStatus.Approved;\r\n        \r\n        // Release payment to freelancer\r\n        project.paidAmount += milestone.amount;\r\n        project.freelancer.transfer(milestone.amount);\r\n        \r\n        emit MilestoneApproved(_projectId, _milestoneIndex, milestone.amount);\r\n        emit PaymentReleased(_projectId, project.freelancer, milestone.amount);\r\n        \r\n        // Check if all milestones are complete\r\n        _checkProjectCompletion(_projectId);\r\n    }\r\n    \r\n    /**\r\n     * @dev Auto-approve milestone if client doesn't respond within deadline\r\n     * @param _projectId ID of the project\r\n     * @param _milestoneIndex Index of the milestone\r\n     */\r\n    function autoApproveMilestone(uint256 _projectId, uint256 _milestoneIndex)\r\n        external\r\n        projectExists(_projectId)\r\n        inStatus(_projectId, ProjectStatus.InProgress)\r\n    {\r\n        Project storage project = projects[_projectId];\r\n        require(_milestoneIndex < project.milestones.length, \"Invalid milestone index\");\r\n        \r\n        Milestone storage milestone = project.milestones[_milestoneIndex];\r\n        require(\r\n            milestone.status == MilestoneStatus.Submitted,\r\n            \"Milestone not submitted\"\r\n        );\r\n        require(\r\n            block.timestamp >= milestone.submittedTime + APPROVAL_DEADLINE,\r\n            \"Approval deadline not reached\"\r\n        );\r\n        \r\n        milestone.status = MilestoneStatus.Approved;\r\n        \r\n        // Release payment to freelancer\r\n        project.paidAmount += milestone.amount;\r\n        project.freelancer.transfer(milestone.amount);\r\n        \r\n        emit MilestoneApproved(_projectId, _milestoneIndex, milestone.amount);\r\n        emit PaymentReleased(_projectId, project.freelancer, milestone.amount);\r\n        \r\n        // Check if all milestones are complete\r\n        _checkProjectCompletion(_projectId);\r\n    }\r\n    \r\n    /**\r\n     * @dev Client disputes a submitted milestone\r\n     * @param _projectId ID of the project\r\n     * @param _milestoneIndex Index of the milestone\r\n     */\r\n    function disputeMilestone(uint256 _projectId, uint256 _milestoneIndex)\r\n        external\r\n        projectExists(_projectId)\r\n        onlyClient(_projectId)\r\n        inStatus(_projectId, ProjectStatus.InProgress)\r\n    {\r\n        Project storage project = projects[_projectId];\r\n        require(_milestoneIndex < project.milestones.length, \"Invalid milestone index\");\r\n        \r\n        Milestone storage milestone = project.milestones[_milestoneIndex];\r\n        require(\r\n            milestone.status == MilestoneStatus.Submitted,\r\n            \"Milestone not submitted\"\r\n        );\r\n        \r\n        milestone.status = MilestoneStatus.Disputed;\r\n        project.status = ProjectStatus.Disputed;\r\n        \r\n        emit MilestoneDisputed(_projectId, _milestoneIndex);\r\n    }\r\n    \r\n    /**\r\n     * @dev Arbiter resolves a disputed milestone\r\n     * @param _projectId ID of the project\r\n     * @param _milestoneIndex Index of the milestone\r\n     * @param _approveFreelancer True to approve freelancer's work, false to refund client\r\n     */\r\n    function resolveDispute(\r\n        uint256 _projectId,\r\n        uint256 _milestoneIndex,\r\n        bool _approveFreelancer\r\n    ) external projectExists(_projectId) onlyArbiter(_projectId) inStatus(_projectId, ProjectStatus.Disputed) {\r\n        Project storage project = projects[_projectId];\r\n        require(_milestoneIndex < project.milestones.length, \"Invalid milestone index\");\r\n        \r\n        Milestone storage milestone = project.milestones[_milestoneIndex];\r\n        require(\r\n            milestone.status == MilestoneStatus.Disputed,\r\n            \"Milestone not disputed\"\r\n        );\r\n        \r\n        if (_approveFreelancer) {\r\n            milestone.status = MilestoneStatus.Approved;\r\n            project.paidAmount += milestone.amount;\r\n            project.freelancer.transfer(milestone.amount);\r\n            emit PaymentReleased(_projectId, project.freelancer, milestone.amount);\r\n        } else {\r\n            milestone.status = MilestoneStatus.Pending;\r\n        }\r\n        \r\n        // Pay arbiter fee\r\n        if (!project.arbiterPaid) {\r\n            project.arbiter.transfer(project.arbiterFee);\r\n            project.arbiterPaid = true;\r\n        }\r\n        \r\n        project.status = ProjectStatus.InProgress;\r\n        \r\n        emit DisputeResolved(_projectId, _milestoneIndex, _approveFreelancer);\r\n        \r\n        // Check if all milestones are complete\r\n        _checkProjectCompletion(_projectId);\r\n    }\r\n    \r\n    /**\r\n     * @dev Cancel project before it starts (only in Created status)\r\n     * @param _projectId ID of the project\r\n     */\r\n    function cancelProject(uint256 _projectId)\r\n        external\r\n        projectExists(_projectId)\r\n        onlyClient(_projectId)\r\n        inStatus(_projectId, ProjectStatus.Created)\r\n    {\r\n        projects[_projectId].status = ProjectStatus.Cancelled;\r\n        emit ProjectCancelled(_projectId);\r\n    }\r\n    \r\n    /**\r\n     * @dev Request refund for remaining milestones (mutual agreement)\r\n     * @param _projectId ID of the project\r\n     */\r\n    function requestRefund(uint256 _projectId)\r\n        external\r\n        projectExists(_projectId)\r\n        inStatus(_projectId, ProjectStatus.InProgress)\r\n    {\r\n        require(\r\n            msg.sender == projects[_projectId].client ||\r\n                msg.sender == projects[_projectId].freelancer,\r\n            \"Only client or freelancer can request refund\"\r\n        );\r\n        \r\n        Project storage project = projects[_projectId];\r\n        \r\n        // Calculate remaining amount\r\n        uint256 remainingAmount = project.totalAmount - project.paidAmount;\r\n        \r\n        if (remainingAmount > 0) {\r\n            project.status = ProjectStatus.Refunded;\r\n            project.client.transfer(remainingAmount + project.arbiterFee);\r\n            \r\n            emit RefundIssued(_projectId, project.client, remainingAmount);\r\n        }\r\n        \r\n        project.status = ProjectStatus.Cancelled;\r\n        emit ProjectCancelled(_projectId);\r\n    }\r\n    \r\n    /**\r\n     * @dev Internal function to check if all milestones are completed\r\n     * @param _projectId ID of the project\r\n     */\r\n    function _checkProjectCompletion(uint256 _projectId) private {\r\n        Project storage project = projects[_projectId];\r\n        \r\n        bool allComplete = true;\r\n        for (uint256 i = 0; i < project.milestones.length; i++) {\r\n            if (project.milestones[i].status != MilestoneStatus.Approved &&\r\n                project.milestones[i].status != MilestoneStatus.Paid) {\r\n                allComplete = false;\r\n                break;\r\n            }\r\n        }\r\n        \r\n        if (allComplete) {\r\n            project.status = ProjectStatus.Completed;\r\n            \r\n            // Pay arbiter fee if not already paid\r\n            if (!project.arbiterPaid) {\r\n                project.arbiter.transfer(project.arbiterFee);\r\n                project.arbiterPaid = true;\r\n            }\r\n            \r\n            emit ProjectCompleted(_projectId);\r\n        }\r\n    }\r\n    \r\n    /**\r\n     * @dev Get project details\r\n     * @param _projectId ID of the project\r\n     */\r\n    function getProject(uint256 _projectId)\r\n        external\r\n        view\r\n        projectExists(_projectId)\r\n        returns (\r\n            address client,\r\n            address freelancer,\r\n            address arbiter,\r\n            string memory projectDescription,\r\n            uint256 totalAmount,\r\n            uint256 paidAmount,\r\n            ProjectStatus status,\r\n            uint256 milestoneCount\r\n        )\r\n    {\r\n        Project storage project = projects[_projectId];\r\n        return (\r\n            project.client,\r\n            project.freelancer,\r\n            project.arbiter,\r\n            project.projectDescription,\r\n            project.totalAmount,\r\n            project.paidAmount,\r\n            project.status,\r\n            project.milestones.length\r\n        );\r\n    }\r\n    \r\n    /**\r\n     * @dev Get milestone details\r\n     * @param _projectId ID of the project\r\n     * @param _milestoneIndex Index of the milestone\r\n     */\r\n    function getMilestone(uint256 _projectId, uint256 _milestoneIndex)\r\n        external\r\n        view\r\n        projectExists(_projectId)\r\n        returns (\r\n            string memory description,\r\n            uint256 amount,\r\n            MilestoneStatus status,\r\n            uint256 submittedTime,\r\n            string memory deliverableHash\r\n        )\r\n    {\r\n        require(\r\n            _milestoneIndex < projects[_projectId].milestones.length,\r\n            \"Invalid milestone index\"\r\n        );\r\n        \r\n        Milestone storage milestone = projects[_projectId].milestones[_milestoneIndex];\r\n        return (\r\n            milestone.description,\r\n            milestone.amount,\r\n            milestone.status,\r\n            milestone.submittedTime,\r\n            milestone.deliverableHash\r\n        );\r\n    }\r\n    \r\n    /**\r\n     * @dev Get balance of the contract\r\n     */\r\n    function getContractBalance() external view returns (uint256) {\r\n        return address(this).balance;\r\n    }\r\n}\r\n",
  "sourcePath": "C:\\Users\\petru\\Desktop\\VU\\Blockchain\\Smart Contract\\Smart-Contract\\contracts\\FreelanceEscrow.sol",
  "compiler": {
    "name": "solc",
    "version": "0.8.19+commit.7dd6d404.Emscripten.clang"
  },
  "schemaVersion": "3.4.16",
  "updatedAt": "2025-12-17T15:03:56.327Z",
  "networkType": "ethereum",
  "devdoc": {
    "details": "Smart contract for managing freelance work payments with milestone-based releases",
    "kind": "dev",
    "methods": {
      "addMilestone(uint256,string,uint256)": {
        "details": "Add a milestone to the project",
        "params": {
          "_amount": "Amount to be paid for this milestone",
          "_description": "Description of the milestone",
          "_projectId": "ID of the project"
        }
      },
      "approveMilestone(uint256,uint256)": {
        "details": "Client approves a submitted milestone",
        "params": {
          "_milestoneIndex": "Index of the milestone",
          "_projectId": "ID of the project"
        }
      },
      "autoApproveMilestone(uint256,uint256)": {
        "details": "Auto-approve milestone if client doesn't respond within deadline",
        "params": {
          "_milestoneIndex": "Index of the milestone",
          "_projectId": "ID of the project"
        }
      },
      "cancelProject(uint256)": {
        "details": "Cancel project before it starts (only in Created status)",
        "params": {
          "_projectId": "ID of the project"
        }
      },
      "createProject(address,address,string,uint256)": {
        "details": "Create a new freelance project",
        "params": {
          "_arbiter": "Address of the arbiter for dispute resolution",
          "_deadline": "Project deadline timestamp",
          "_freelancer": "Address of the freelancer",
          "_projectDescription": "Description of the project"
        }
      },
      "disputeMilestone(uint256,uint256)": {
        "details": "Client disputes a submitted milestone",
        "params": {
          "_milestoneIndex": "Index of the milestone",
          "_projectId": "ID of the project"
        }
      },
      "getContractBalance()": {
        "details": "Get balance of the contract"
      },
      "getMilestone(uint256,uint256)": {
        "details": "Get milestone details",
        "params": {
          "_milestoneIndex": "Index of the milestone",
          "_projectId": "ID of the project"
        }
      },
      "getProject(uint256)": {
        "details": "Get project details",
        "params": {
          "_projectId": "ID of the project"
        }
      },
      "requestRefund(uint256)": {
        "details": "Request refund for remaining milestones (mutual agreement)",
        "params": {
          "_projectId": "ID of the project"
        }
      },
      "resolveDispute(uint256,uint256,bool)": {
        "details": "Arbiter resolves a disputed milestone",
        "params": {
          "_approveFreelancer": "True to approve freelancer's work, false to refund client",
          "_milestoneIndex": "Index of the milestone",
          "_projectId": "ID of the project"
        }
      },
      "startProject(uint256)": {
        "details": "Start the project and fund the escrow",
        "params": {
          "_projectId": "ID of the project"
        }
      },
      "submitMilestone(uint256,uint256,string)": {
        "details": "Freelancer submits a completed milestone",
        "params": {
          "_deliverableHash": "IPFS hash or proof of work",
          "_milestoneIndex": "Index of the milestone",
          "_projectId": "ID of the project"
        }
      }
    },
    "title": "FreelanceEscrow",
    "version": 1
  },
  "userdoc": {
    "kind": "user",
    "methods": {},
    "notice": "This contract handles escrow payments between clients and freelancers with arbiter dispute resolution",
    "version": 1
  }
}